:020000040800F2
:1000000000040020790200087B0200087B0200083F
:100010007B0200087B0200087B0200087B020008CC
:100020007B0200087B0200087B0200080131000807
:100030007B0200087B0200087B0200087B020008AC
:100040007B0200087B0200087B0200087B0200089C
:100050007B0200087B0200087B0200087B0200088C
:100060007B0200087B0200087B0200087B0200087C
:100070007B0200087B0200087B0200087B0200086C
:100080007B0200087B0200087B0200087B0200085C
:100090007B0200087B0200087B0200087B0200084C
:1000A0007B0200087B0200087B0200087B0200083C
:1000B000E17300087B0200087B0200087B02000855
:1000C0007B0200087B0200087B0200087B0200081C
:1000D0007B0200087B020008617200087B020008B6
:1000E0007B0200087B0200087B0200087B020008FC
:1000F0007B0200087B0200087B0200087B020008EC
:100100007B0200087B0200087B0200087B020008DB
:100110007B0200087B0200087B0200087B020008CB
:100120007B0200087B0200087B0200087B020008BB
:100130007B0200087B0200087B0200087B020008AB
:100140007B0200087B0200087B0200087B0200089B
:100150007B0200087B0200087B0200087B0200088B
:100160007B0200087B0200087B0200087B0200087B
:100170007B0200087B0200087B0200087B0200086B
:100180007B0200087B0200087B0200087B0200085B
:100190007B0200087B0200087B0200087B0200084B
:1001A00072B6274880F30888264880F309882648D5
:1001B0004EF60851CEF200010860022080F3148848
:1001C000BFF36F8F07F0A4F906F062FF4FF05530D0
:1001D0001E491B4A91423CBF41F8040BFAE71C49F7
:1001E000184A91423CBF41F8040BFAE719491A4AF0
:1001F0001A4B9A423EBF51F8040B42F8040BF8E741
:1002000000201749174A91423CBF41F8040BFAE716
:1002100007F036F907F074F9134C144DAC4203DAC9
:1002200054F8041B8847F9E702F05AFD104C114DB1
:10023000AC4203DA54F8041B8847F9E707F058B9D1
:10024000000400200008002000000008000000203A
:100250000004002090980008000800208C0800206E
:1002600090080020F8130020A0010008A001000859
:10027000A0010008A001000892E700F000F8FEE7E6
:100280002DE9F04FC1F80CD0C3689D46BDE8F08F52
:10029000002383F311882846A047002002F040FF86
:1002A00002F06EFF00DFFEE7844641EA000313F030
:1002B00003036DD1403A41D351F8043B40F8043B6D
:1002C00051F8043B40F8043B51F8043B40F8043B30
:1002D00051F8043B40F8043B51F8043B40F8043B20
:1002E00051F8043B40F8043B51F8043B40F8043B10
:1002F00051F8043B40F8043B51F8043B40F8043B00
:1003000051F8043B40F8043B51F8043B40F8043BEF
:1003100051F8043B40F8043B51F8043B40F8043BDF
:1003200051F8043B40F8043B51F8043B40F8043BCF
:1003300051F8043B40F8043B403ABDD2303211D36F
:1003400051F8043B40F8043B51F8043B40F8043BAF
:1003500051F8043B40F8043B51F8043B40F8043B9F
:10036000103AEDD20C3205D351F8043B40F8043B6F
:10037000043AF9D2043208D0D2071CBF11F8013B6D
:1003800000F8013B01D30B8803806046704700BF33
:10039000082A13D38B078DD010F003038AD0C3F142
:1003A0000403D21ADB071CBF11F8013B00F8013B24
:1003B00080D331F8023B20F8023B7BE7043AD9D3E3
:1003C000013A11F8013B00F8013BF9D20B780370B8
:1003D0004B7843708B788370604670470000000054
:1003E000014B5B6883607047001000E00000000074
:1003F000202383F31188094B9A6822B1002000233F
:1004000083F311887047064A92699A60916BD960AC
:1004100093630120002383F3118870472C08002088
:10042000F0080020000000000000000000000000B4
:10043000202383F31188044B9A690023506B536384
:1004400083F31188704700BFF0080020000000000F
:100450004FF08043091A5B6A1B1A8B4208D3054987
:10046000054A064B06480860012010701870704756
:1004700000207047AC11002050120020B011002065
:10048000AC76000800000000000000000000000042
:10049000F0B4202383F311880D4DD5E900744E1E6E
:1004A0003A448319494290190B4008400344A3423F
:1004B00007D89F4205D82B60002383F31188F0BC36
:1004C00070470020002383F31188F0BC704700BF01
:1004D000880A00200000000000000000000000006A
:1004E000024A136843F0C0031360704700440040A1
:1004F0000B4B0C4AD91D21F00701CB1AC3F178032D
:1005000010B4002002F10C04DB084B60516008605D
:10051000C2E9034410609060506110BC704700BF96
:10052000D0110020B41100200000000000000000E5
:10053000054B00220421C3E90033DA609A619A6016
:10054000C3E90411704700BF10080020000000003C
:10055000FFF7EEBF000000000000000000000000F8
:1005600000207047000000000000000000000000B4
:10057000034B002104221960D960C3E901227047AE
:1005800074080020000000000000000000000000CF
:1005900030B40A4B0A4A1A6002F1100503F118043C
:1005A000002103F120005D60C3E90644C3E9022293
:1005B000C3E908001961197530BC70474C08002068
:1005C000C80A002000000000000000000000000039
:1005D000FFF7DEBF00000000000000000000000088
:1005E000FFF7D6BF00000000000000000000000080
:1005F000024B0022C3E900339A607047E80A0020EA
:10060000024B0122C3E900339A607047340B00208B
:10061000704700BF00000000000000000000000064
:10062000024B0022C3E900339A607047340B00206C
:10063000044B00224FF4A4700421C3E901011A60A5
:10064000DA607047D80A00200000000000000000B7
:100650000B4B0C4AD91D21F00701CB1AC3F5CC6313
:1006600010B4002002F10C04DB084B6051600860FC
:10067000C2E9034410609060506110BC704700BF35
:10068000400B0020AC0A0020000000000000000029
:1006900008B5FFF7CDFE024A024B12601B6008BD91
:1006A000080800200C0800200000000000000000E6
:1006B000FFF7BEBE000000000000000000000000C8
:1006C000FFF7F6BF0000000000000000000000007F
:1006D000FFF7EEBF00000000000000000000000077
:1006E000FFF7E6BF0000000000000000000000006F
:1006F000FFF7DEBF00000000000000000000000067
:100700000649074A074B096000204960C2E90022F8
:1007100090609860C3E90033704700BF0008002074
:100720002C0800203C080020000000000000000011
:10073000044A054B126000215260C3E900339960FE
:10074000704700BF000800202C08002000000000B7
:10075000FFF7EEBF000000000000000000000000F6
:10076000024B0022C3E900339A6070472C08002036
:10077000044A054B12600021C2E901219960C3E9D6
:10078000003370472C0800203C08002000000000C7
:10079000FFF7E6BF000000000000000000000000BE
:1007A000024B0022C3E900339A607047280B0020F7
:1007B000FFF7F6BF0000000000000000000000008E
:1007C000FFF7EEBF00000000000000000000000086
:1007D000FFF7E6BF0000000000000000000000007E
:1007E000024B0122C3E900339A607047280B0020B6
:1007F000014B00221A6070478012002000000000A8
:1008000048B910B4054A064C064B01202070107000
:10081000196010BC70470020704700BFB011002065
:1008200050120020AC110020000000000000000069
:10083000044B01214FF080421960516A536A99427A
:10084000FCD070475412002000000000000000009F
:10085000074B01221A60202383F3118862B672B617
:1008600083F3118862B6002383F3118862B6704760
:1008700054120020000000000000000000000000F2
:100880000B4B30B403F114002025002453F8042B43
:100890004AB185F3118892F8211041F0040182F8E1
:1008A000211084F311888342F0D130BC704700BF1F
:1008B0006C1200200000000000000000000000009A
:1008C00020B370B584B06D462C46114E00E014463E
:1008D000A6FB0023DB0803EB8301A0EB410000F142
:1008E00030012246C9B202F8011B1846002BEED196
:1008F000AA4209D9074E01E014F8011D30680368C7
:10090000DB689847A542F7D104B070BD704700BFBF
:10091000CDCCCCCCA81100200000000000000000CD
:1009200028B9044B186803683021DB681847FFF7C3
:10093000C7BF00BFA8110020000000000000000099
:10094000202383F31188064A064913688B4202D29A
:10095000591C18701160002383F31188704700BF81
:100960006812002068120020000000000000000053
:100970004320FFF7E5BF00BF0000000000000000BB
:100980004220FFF7DDBF00BF0000000000000000B4
:100990004120FFF7D5BF00BF0000000000000000AD
:1009A0000078FFF7CDBF00BF00000000000000008E
:1009B000FFF7F6BF0000000000000000000000008C
:1009C00070B5017889B10A4D044628680368DB6870
:1009D000984714F8011F0029F7D1286805490368D2
:1009E00002225B68BDE870401847014DF5E700BF83
:1009F000A81100205098000800000000000000002E
:100A0000017859B138B5064D044628680368DB689B
:100A1000984714F8011F0029F7D138BD704700BF6F
:100A2000A8110020000000000000000000000000ED
:100A3000F0B40D4E0D4F3568421E3B4603E013F8EF
:100A4000014B844207D19D4212F8010FF7D810B92B
:100A50003760F0BC7047064C064A074B01202070F7
:100A600010701960F0BC7047681200205812002006
:100A700050120020B0110020AC1100200000000036
:100A8000F8B50F4B0F4F01261E600725002425FAED
:100A900004F313F0010F06FA04F220460DD057F8C4
:100AA000243025EA020501349847002DEFD106498C
:100AB0000648BDE8F840FFF7BBBF0134E7E700BFD9
:100AC0005412002008770008508900086489000843
:100AD00070B5084D4C24286803682D21DB689847C1
:100AE000013CF8D128680449036802225B68BDE82C
:100AF00070401847A811002050980008000000001E
:100B0000202383F311880F4B5B6813F4006302D139
:100B100083F311887047EFF309834FF0807243F835
:100B2000042CA3F1200282F30988074A1168926914
:100B30008968926891428CBF044A054A43F8082CA0
:100B4000704700BF00ED00E0F0080020A10200089F
:100B5000A4020008000000000000000000000000E7
:100B600070B40B4CD4E90063721E4D420A44013943
:100B70000144294002EA05000144994204D88E420A
:100B800002D8216070BC7047002070BC704700BF65
:100B9000880A0020000000000000000000000000A3
:100BA00008B52022034682F31188006828B1026844
:100BB0001A60002383F3118808BDDA68002AF8D090
:100BC000D3E901019047002383F3118808BD00BFDA
:100BD0002DE9F0413A4E3B4B3B4C0122326020253F
:100BE0000422002085F3118821681960236080F3B6
:100BF00011886168013A0B44F4D10223DFF8C88000
:100C0000324F336004254046FFF7CAFF003018BF5B
:100C100001203946FFF7F4FD00283CD1013DF2D117
:100C2000032329483360FFF7BBFFB0FA80F0400987
:100C30002749FFF7E5FD70BB224B042203F11007A3
:100C4000326020201A4680F31188216843F8041B83
:100C5000226085F311889F42F4D10523DFF8688074
:100C60001A4F336004254046FFF79AFF003018BF43
:100C700001203946FFF7C4FD68B9013DF3D10623D1
:100C800011483360FFF78CFFB0FA80F0400910493B
:100C9000FFF7B6FD08B1BDE8F081072104230D4A36
:100CA000094831602560C4E90133E260FFF778FF4D
:100CB000B0FA80F040090849BDE8F041FFF7A0BD57
:100CC00054120020F80A0020740800205078000810
:100CD0005C780008610500086C78000800000000DE
:100CE000202383F31188044B9B695A6B104358638C
:100CF000002383F311887047F008002000000000F3
:100D0000202383F31188024602E08B4207D01A4663
:100D100013688342F9D1002383F3118870470B686D
:100D20001360002383F31188704700BF00000000A8
:100D30002DE9F047364CDFF8E890246002218AB0B4
:100D4000C9F80010202686F31188324823680AAFBC
:100D5000012247F8143D8369069300254FF0FF33C5
:100D600007922760CDE9085385F3118886F311882F
:100D70000DF12808226848F8282D8269C4F80080FF
:100D8000CDE90121CDE9035385F3118886F311885C
:100D900020682149001B18BF0120FFF731FD20B159
:100DA00085F311880AB0BDE8F087824680F3118888
:100DB000032339462046C9F80030FFF7A1FF86F328
:100DC000118820681449001B18BF0120FFF718FD87
:100DD000054620B18AF311880AB0BDE8F08780F398
:100DE0001188042341462046C9F80030FFF788FFE8
:100DF00086F3118820680949001BB0FA80F0400989
:100E0000FFF7FEFC0028CBD180F31188CAE700BFB2
:100E100008080020F0080020248900083089000814
:100E2000541200200000000000000000000000003C
:100E30000E4B0F4A5B68C168F0B48468566F426815
:100E40001B1BD0E904459B1BE61845F100079342A4
:100E5000026888BF436001319342C0E90467C0E97A
:100E6000023138BF0360F0BC704700BF001000E0E3
:100E7000F00800200000000000000000000000005A
:100E8000836841681A4AF0B4D0E90475022643F831
:100E90002C1C0124002143E91B750568C06803F878
:100EA000271C03F8286C03F8264C43F8382C5469A7
:100EB00043F8400C43F80C0C43F8305CA3F16C0091
:100EC0000C4D43F83C0C43F84C5CA3F1480043E95B
:100ED0000511A3F12005A3F11C0143F8344C206156
:100EE000506143E9085143F8181CF0BC704700BF3B
:100EF000F00800209102000800000000000000003F
:100F0000202383F3118890F82030072B0ED8DFE8D8
:100F100003F0280D0D2408040D08426A936801337C
:100F20009360D0E900231A600268536010B4002275
:100F30004FF0FF3481680D4B446280F820201B681D
:100F40009A688A42FBD25A680021C0E900321060D8
:100F5000586081F3118810BC7047436A00221A6000
:100F6000E4E7002383F31188704700BFF0080020F6
:100F700001460022074B806881F820201B689A6890
:100F80008242FBD25A680846C1E9003211605960BA
:100F9000704700BFF00800200000000000000000C3
:100FA0000368984207D01A68026000215060184612
:100FB0005962FFF7DDBF704700000000000000002D
:100FC0000F4B1A7DB2B970B5D3E900611A698C1B59
:100FD000B2EBA40F11D09D682C1D9C60A14228602B
:100FE00002F10102074898BF9E601A61FFF7D8FF1F
:100FF000002070BD6FF0010070474FF0FF3070BDF2
:101000004C0800206C0800200000000000000000D8
:1010100038B50F4B1A7DA2B9D3E9004519692A1BCF
:10102000B1EBA20F10D0DA68043A944288BF2A1FAD
:10103000DA600131106007481961FFF7B1FF002045
:1010400038BD6FF0010038BD4FF0FF3038BD00BF34
:101050004C0800206C080020000000000000000088
:1010600038B50F4B1A7DA2B91969A9B1DA685C6865
:1010700015680432A242DA6001F1FF31056028BF31
:101080001A68084828BFDA601961FFF789FF002055
:1010900038BD6FF0010038BD4FF0FF3038BD00BFE4
:1010A0004C08002064080020000000000000000040
:1010B00038B5036898420CD004466FF001051A68F1
:1010C0002260184654605D62FFF752FF2368A34216
:1010D000F5D138BD00000000000000000000000055
:1010E000074B1A689A4209D0116810B400244B606B
:1010F00019605462104610BCFFF73ABF704700BF3A
:1011000000080020000000000000000000000000B7
:10111000436B90F8202019430A2A416309D00B2A17
:1011200000D07047436A8B43FBD100234362FFF733
:101130001FBF436A1942F8D1704700BF000000008A
:1011400070B50468A0420FD006460D46E3682B43F5
:10115000E36015B123691D4203D0D4E90101FFF713
:10116000D7FF2468A642F1D170BD00BF0000000087
:10117000124B30B404689D69C368AB63844218D0D5
:101180000146E86B4BB11A68934203D092689042D3
:1011900038BF1046DB68002BF5D1A26B2368A8602E
:1011A0000B6020465960C1E90242A16330BCFFF7E1
:1011B000DFBE0023A36030BC704700BFF0080020F2
:1011C00083680133002B836000DD704703681A6871
:1011D00002600021506018465962FFF7C9BE00BF87
:1011E0001B4BDA69824210B40FD0D0E900210A60AB
:1011F00002681C3300249A425160C46003D08168A5
:1012000093680B44936010BC70471846116840F80F
:101210001C1F002481424860D46014D094688A68FE
:101220009B6A14444FF080428C60526AD21A9442F6
:10123000E9D9A11A012998BF941C4FF08042234498
:10124000536310BC70474FF08043DC60DBE700BFA6
:10125000F008002000000000000000000000000076
:10126000F0B41F4D2E46022956F81C4FC2604FF0B5
:10127000804738BF0221B44203617A6A1FD0AE6A48
:10128000A368921B891816D28B4226D8994204D99A
:101290002468C91AA3688B42FAD36368C0E9004383
:1012A000186060608160A3684FF0FF32591AA16036
:1012B0006A62F0BC70472468C91AA368E6E7AA62AC
:1012C0008E1802230022C5E90700C0E900448160AE
:1012D0007E633A61FB60F0BC70470E447E63D5E7E5
:1012E000F0080020000000000000000000000000E6
:1012F000EFF30583202383F311887047000000007B
:10130000C20710B412D5294BD3E90014994241D039
:1013100000220968994202F10102FAD18C4236D0CA
:1013200064689C4202F1FF32FAD182BB830713D575
:101330001E4CD4E907211C34A2422FD0002312688E
:10134000A24203F10103FAD1914220D04968A1429F
:1013500003F1FF33FAD1D3B910F0040015D0134BC9
:10136000D3E904219A424FF000001BD012699A423F
:1013700000F10100FAD1914209D04969994200F186
:10138000FF30FAD1003018BF012010BC7047012097
:1013900010BC70479C42C9D00022C1E7A142DBD0FB
:1013A0000023D3E79142E8D1EFE700BFF008002027
:1013B00070B5244D01202860202484F31188FFF7A4
:1013C0009FFF002383F3118880F00100C0B21E4903
:1013D000FFF716FA00B170BD06460220286084F3BC
:1013E0001188FFF78DFF86F3118880F00100C0B2ED
:1013F0001649FFF705FA06460028ECD103232B60B7
:1014000084F311880420FFF77BFF86F3118880F0B6
:101410000100C0B20E49FFF7F3F906460028DAD101
:1014200004232B6084F311880820FFF769FF86F3FB
:10143000118880F00100C0B20649BDE87040FFF796
:10144000DFB900BF54120020BC850008D485000815
:10145000F885000814860008000000000000000065
:10146000FEE700BF000000000000000000000000D8
:101470000020704700000000000000000000000095
:1014800070B5334D334C344801232B60FFF7B8FA65
:101490007820FFF715FA2046FFF792FA02232F482B
:1014A0002B60FFF7ADFA4420FFF70AFA2046FFF75A
:1014B00087FA03232A482B60FFF7A2FA1420FFF7CC
:1014C000FFF92046FFF77CFA042626482E60FFF736
:1014D00097FA0C20FFF7F4F92046FFF771FA05237D
:1014E00021482B60FFF78CFA1020FFF7E9F920461E
:1014F000FFF766FA06231D482B60FFF781FA0820E4
:10150000FFF7DEF92046FFF75BFA072318482B6048
:10151000FFF776FA3046FFF7D3F92046FFF750FA87
:10152000082314482B60FFF76BFA1420FFF7C8F963
:101530002046FFF745FA09230F482B60FFF760FAB2
:101540002820FFF7BDF92046BDE87040FFF738BA04
:10155000541200206C8C00085C8C0008748C00080D
:10156000848C0008948C0008A48C0008B48C0008BB
:10157000C48C0008D48C0008E48C00080000000033
:1015800038B5C94BC94CCA4801251D60FFF738FA68
:101590002020FFF795F92046FFF712FAC548FFF71C
:1015A0002FFA42F21070FFF78BF92046FFF708FA86
:1015B000C148FFF725FA2020FFF782F92046FFF700
:1015C000FFF9BE48FFF71CFA2020FFF779F9204603
:1015D000FFF7F6F9BA48FFF713FA0220FFF770F9A0
:1015E0002046FFF7EDF9B748FFF70AFA0020FFF7AA
:1015F00097F92046FFF7E4F9B348FFF701FA002016
:10160000FFF78EF92046FFF7DBF9B048FFF7F8F94E
:101610000020FFF785F92046FFF7D2F9AC48FFF725
:10162000EFF92846FFF74CF92046FFF7C9F9A9481A
:10163000FFF7E6F92846FFF743F92046FFF7C0F920
:10164000A548FFF7DDF92846FFF73AF92046FFF7EE
:10165000B7F9A248FFF7D4F92846FFF731F9204639
:10166000FFF7AEF99E48FFF7CBF92846FFF728F9B8
:101670002046FFF7A5F99B48FFF7C2F90020FFF7C6
:101680004FF92046FFF79CF99748FFF7B9F928462C
:10169000FFF716F92046FFF793F99448FFF7B0F9E2
:1016A0000020FFF73DF92046FFF78AF99048FFF741
:1016B000A7F92846FFF704F92046FFF781F98D487E
:1016C000FFF79EF92846FFF7FBF82046FFF778F969
:1016D0008948FFF795F92846FFF7F2F82046FFF70B
:1016E0006FF98648FFF78CF92846FFF7E9F820469E
:1016F000FFF766F98248FFF783F92846FFF7E0F81D
:101700002046FFF75DF97F48FFF77AF90020FFF7E1
:1017100007F92046FFF754F97B48FFF771F928468F
:10172000FFF7CEF82046FFF74BF97848FFF768F946
:101730002846FFF7C5F82046FFF742F97448FFF73F
:101740005FF92846FFF7BCF82046FFF739F97148E2
:10175000FFF756F92846FFF7B3F82046FFF730F9B0
:101760006D48FFF74DF92846FFF7AAF82046FFF726
:1017700027F96A48FFF744F92846FFF7A1F8204601
:10178000FFF71EF96648FFF73BF92846FFF798F880
:101790002046FFF715F96348FFF732F90820FFF7F5
:1017A0008FF82046FFF70CF95F48FFF729F9284624
:1017B000FFF786F82046FFF703F95C48FFF720F9AA
:1017C0002846FFF77DF82046FFF7FAF85848FFF75C
:1017D00017F92846FFF774F82046FFF7F1F8554847
:1017E000FFF70EF92846FFF76BF82046FFF7E8F8F9
:1017F0005148FFF705F92846FFF762F82046FFF742
:10180000DFF84E48FFF7FCF80020FFF789F8204684
:10181000FFF7D6F84A48FFF7F3F80020FFF780F803
:101820002046FFF7CDF84748FFF7EAF80020FFF71A
:1018300077F82046FFF7C4F84348FFF7E1F80020A7
:10184000FFF76EF82046FFF7BBF84048FFF7D8F8DF
:10185000FF20FFF735F82046FFF7B2F83C48FFF7C6
:10186000CFF88020FFF72CF82046FFF7A9F8394879
:10187000FFF7C6F80020FFF753F82046FFF7A0F85F
:101880003548FFF7BDF80020FFF74AF82046FFF77C
:1018900097F83248FFF7B4F80020FFF741F82046E8
:1018A000BDE83840FFF78CB854120020D07B000808
:1018B0001C7E0008487E0008747E0008A07E000898
:1018C000CC7E0008F87E0008247F0008507F0008C6
:1018D0007C7F0008A87F0008D47F000800800008F3
:1018E0002C8000085880000884800008B080000820
:1018F000DC8000080881000834810008608100084D
:101900008C810008B8810008E4810008108200087A
:101910003C8200086882000894820008C0820008A7
:10192000EC820008188300084483000870830008D4
:101930009C830008C8830008F48300082084000802
:101940004C84000878840008A4840008D08400082F
:10195000FC8400082885000854850008808500085C
:1019600038B5194B19481A4C01251D60FFF728F8A6
:101970001848FFF745F82846FEF7A2FF2046FFF774
:101980001FF81548FFF73CF81448FFF719F81448FA
:10199000FFF736F80520FEF793FF2046FFF710F813
:1019A0001048FFF72DF82846FEF78AFF2046FFF77C
:1019B00007F80D48FFF724F80020FEF7B1FF204696
:1019C000BDE83840FEF7FCBF54120020F47C00084C
:1019D000D07B0008287D0008547D0008807D000829
:1019E000887D0008B47D0008E07D0008000000004C
:1019F0001C4B1D4810B501221A60FFF701F81B4867
:101A00001B4CFEF7DDFF1B48FEF7FAFF1A48FEF7F6
:101A1000D7FF1A48FEF7F4FF1948FEF7D1FF19481F
:101A2000FEF7EEFF1848FEF7CBFF1848FEF7E8FF79
:101A30000420FEF745FF2046FEF7C2FF1448FEF7DC
:101A4000DFFF0820FEF73CFF2046FEF7B9FF1148F4
:101A5000FEF7D6FF0820FEF733FF2046BDE8104012
:101A6000FEF7AEBF54120020387B0008647B0008EC
:101A7000D07B0008707B00089C7B0008A87B0008D6
:101A8000D47B00081C7C0008487C0008607C0008AF
:101A90008C7C0008B87C00080000000000000000FA
:101AA00070B50C68A14212D00D46064602E02468CB
:101AB000A5420CD008223146A01805F075FD00287B
:101AC000F5D12CB1636801336360204670BD0024FA
:101AD000204670BD00000000000000000000000073
:101AE000F8B50C68A1420D460646174603D10DE035
:101AF0002468A5420AD008223146A01805F054FDFA
:101B00000028F5D114B104462046F8BD3846FFF749
:101B100047F8044648B108221044314605F090FDCC
:101B20002B680122C4E900322C602046F8BD00BFBA
:101B300038B5202383F31188124A106894698368AA
:101B4000A1688B4203D2002383F3118838BD036858
:101B500013605A6001259061002280F8205084F8BB
:101B6000202000E01B689A689142FBD95A68214600
:101B7000C4E9003214605C60FEF782FB002383F34B
:101B8000118838BDF00800200000000000000000AF
:101B900038B5094D0446FFF7CBFFFFF7C9FFFFF744
:101BA000C7FFFFF7C5FF2368AA690433236092F8D3
:101BB00021305B07EFD538BDF008002000000000A1
:101BC000164B70B49E6985680446B06861628542B0
:101BD0004FF000020CD884F820201B689A689542C8
:101BE000FBD95A68C4E9003214605C6070BC70476D
:101BF00086F820201A46126891688842FBD95168FD
:101C00007160012032600E60566084F82000314619
:101C100020469C6170BCFEF733BB00BFF00800207B
:101C200070B5202484F311881D4EC0F8E03000F117
:101C3000DC03C0F8DC20C0F808117269C0F83C1160
:101C4000C0F80C31174D184BC0F8FC50022401218C
:101C5000A0F8204180F8221100F580740025C0F81A
:101C6000183100F5947100F59673C0F83851C0F83A
:101C70003451C0F81061C0F81421C0F81C0114617F
:101C8000C0F82811C0F82C31C0F830312946204660
:101C90007461FFF795FF85F31188204670BD00BF82
:101CA000F008002091020008E8760008000000001B
:101CB00008B5202383F31188064B1868984205D095
:101CC00002681A6053600021FFF77AFF002383F354
:101CD000118808BD0008002000000000000000007E
:101CE000F0B5144D87B0074628460E461446FEF759
:101CF00057FFE0B16B68104A0097034402930190CC
:101D0000039605940492202383F311886846FFF715
:101D1000B7F8022380F82130056400210446FFF75C
:101D20004FFF002383F31188204607B0F0BD04461F
:101D3000FAE700BFD80A0020B1090008000000003F
:101D400008B5202383F3118883680133002B836057
:101D500003DD002383F3118808BD03460068026891
:101D60001A6000215360FFF72BFF002383F31188D3
:101D700008BD00BF000000000000000000000000DF
:101D8000084B99691A6810B481F82000106818602F
:101D90000124436082F82040104610BC9A61FEF78F
:101DA0006FBA00BFF0080020000000000000000033
:101DB0000B4A10B52023946983F31188636B33B900
:101DC0004FF0FF3363620A20FFF7DAFF636B58427C
:101DD000184023EA00036363002383F3118810BDD6
:101DE000F0080020000000000000000000000000DB
:101DF000094A10B52023946983F31188606B30B9C8
:101E00004FF0FF330A206362FFF7BAFF606B0023D5
:101E1000636383F3118810BDF00800200000000008
:101E20000C4A10B52023946983F31188636B03F087
:101E30000502052A05D0052363620B20FFF7A0FFEA
:101E4000636B23F005036363002383F3118805208C
:101E500010BD00BFF00800200000000000000000DE
:101E6000074A10B52023946983F311880320FFF7F4
:101E700087FF636A002BF9D0002383F3118810BD1C
:101E8000F00800200000000000000000000000003A
:101E900030B54B1C87B012D00C4C0D4AA3690546D7
:101EA00001A8FFF7DDF92846FFF76AFF049B13B18D
:101EB00001A8FFF795F9A369586A07B030BD034C34
:101EC000FFF75EFFA369586A07B030BDF008002035
:101ED000010F0008000000000000000000000000EA
:101EE000202383F31188104B99684A1E002A9A60B8
:101EF00004DB0020002383F31188704780B10B4A74
:101F000010B592695C685362C2E9003401462260F0
:101F100005205A60FFF7BCFF002383F3118810BD32
:101F200099604FF0FF30E5E7280B0020F008002013
:101F300010B5202383F31188154CA268531E002B83
:101F4000A36007DBE068B0B10368E360002383F3BC
:101F5000118810BDC8B10F4B62689B690146C3E987
:101F600000425C62052013606360FFF791FF002868
:101F7000E8D00020EAE7A369002BFAD0D4E90401F5
:101F80009847002383F3118810BDA260DEE700BFED
:101F900010080020F00800200000000000000000F1
:101FA00008B5074B01224FF47A701A60FFF7C0FFA3
:101FB000B0FA80F040090349BDE80840FEF720BCB4
:101FC000541200205C7800080000000000000000AF
:101FD00070B5574D574C01202860A269202383F328
:101FE0001188536B33B983F311885349FEF708FC0A
:101FF00080B170BD5842184023EA000353630023A8
:1020000083F31188B0FA80F040094B49FEF7F8FBE2
:102010000028EED1A369202282F311885A6B002A8E
:1020200072D0586380F311884349FEF7E9FB00281A
:10203000DFD1A369202282F311885A6B013267D065
:1020400080F3118801203C49FEF7DAFB0028D0D14B
:1020500002232B60A669202383F31188756B55B981
:102060004FF0FF3373624FF4FA710A20FFF710FF4D
:10207000002851DB756B6842284025EA000575632E
:10208000002383F31188B0FA80F040092A49FEF753
:10209000B7FB0028ADD1A669202383F31188756BA7
:1020A00055B94FF0FF3373624FF4FA710A20FFF70E
:1020B000EFFE002834DB756B0023736383F3118814
:1020C000B5FA85F040091C49FEF79AFB0546002841
:1020D0008FD1A469202383F31188636B013309D066
:1020E0004FF0FF3363624FF4FA710B20FFF7D0FE1D
:1020F000002819DB0023636383F3118828460E4907
:10210000BDE87040FEF77CBB82F3118801208BE7AD
:10211000586380F3118896E785F311880120B5E7AD
:1021200085F311880120CEE785F311880125E5E7C5
:1021300054120020F0080020FC8900080000000074
:1021400061B1084B10B4024644689B690420C3E99E
:1021500000242360536010BCFFF79ABE4FF0FF309D
:10216000704700BFF00800200000000000000000E1
:10217000F8B504460F461646202383F3118803E082
:10218000FFF7DEFF002818DBA56831462046002D4A
:10219000F6D06269A368511C013B6161A3601770AE
:1021A000D4E904329A4224BFE3686361E36903B16E
:1021B0009847002080F31188F8BD85F31188F8BD99
:1021C0003030FFF7D5BF00BF000000000000000066
:1021D00030304FF0FF32FFF7CBBF00BF00000000F0
:1021E00070B5202304460E4683F3118803E0FFF701
:1021F000A7FF00281ADBA56831462046002DF6D03F
:10220000A169A36820694A1C013B8242A360A261C4
:1022100028BFE3680D7828BFA361E3690BB12046AE
:102220009847002383F31188284670BD85F31188F1
:1022300070BD00BF000000000000000000000000B2
:102240000C30FFF7CDBF00BF000000000000000011
:102250000C304FF0FF31FFF7C3BF00BF000000009C
:1022600008B50146202383F311880820FFF710FEEC
:10227000002383F3118808BD000000000000000067
:102280002DE9F04F81469E4C9E4B9F48236083B0C2
:10229000FEF796FBD9F80030002B00F089819B4DAA
:1022A0002A2120680368DB68984715F8011F002978
:1022B000F7D1D9F80000FEF783FB9548954DFEF75E
:1022C0007FFB2A2120680368DB68984715F8011F07
:1022D0000029F7D19048914DFEF772FB2A21206822
:1022E0000368DB68984715F8011F0029F7D18C486F
:1022F0008C4DFEF765FB2A2120680368DB68984750
:1023000015F8011F0029F7D187480191FEF758FB06
:102310007D48864FFEF754FB854B01991970D9F81B
:1023200004308B4653F82B304FEA8B06002B00F01D
:102330001D814C25206803683D21DB689847013DDD
:10234000F8D120687B4903687B4D5B68022298477F
:102350003D2120680368DB68984715F8011F0029B4
:10236000F7D10BF1010B5846744DFEF7D9FA202135
:1023700020680368DB68984715F8011F0029F7D12A
:10238000D9F804309B591D68297839B12068036851
:10239000DB68984715F8011F0029F7D16848FEF758
:1023A0000FFB0025D9F804309A59526852F82520BD
:1023B0004FEA8508002AB5D0DFF89CA1FEF788FB1C
:1023C0002D2120680368DB6898471AF8011F00294F
:1023D000F7D15846FEF7A4FA2068DFF860A1036839
:1023E0002E21DB68013598472846FEF799FA20210F
:1023F00020680368DB6898471AF8011F0029F7D1A5
:10240000D9F804309B595B6853F80830D3F800A022
:102410009AF8001039B120680368DB6898471AF809
:10242000011F0029F7D14648DFF830A1FEF7C8FAAE
:102430004FF4FA60FFF714FFD9F80430414A9B5972
:102440003A605B6853F80880D8F8043000228AF8B4
:10245000002003B19847D8F80C309847D8F80830D6
:1024600003B198479AF80030002B44D0DFF8F08091
:102470002D2120680368DB68984718F8011F0029A0
:10248000F7D1314BDFF8DC801868FEF749FA2021DC
:1024900020680368DB68984718F8011F0029F7D106
:1024A0003B68284A934209D99046206818F8011BD6
:1024B0000368DB6898473B689845F6D3DFF8A88047
:1024C0005D2120680368DB68984718F8011F002920
:1024D000F7D11E4BD3F8008098F8001039B120686E
:1024E0000368DB68984718F8011F0029F7D11848DE
:1024F000FEF766FA56E71748FEF762FA52E700BFA2
:10250000A811002090080020D07B00081C9700082C
:10251000C897000824970008CC970008389700084F
:10252000E49700084C970008009800086812002003
:10253000B0110020509800086097000874970008B8
:102540002C9800085812002054120020AC110020D2
:10255000309800083498000878970008501200203E
:1025600088970008A0970008A4970008FEF7B0FA23
:10257000114D1248FEF724FA462120680368DB68F3
:10258000984715F8011F0029F7D10D4B1B783BB96F
:102590000C48FEF715FA0A4B187803B0BDE8F08F27
:1025A0000948FEF70DFA064B187803B0BDE8F08F26
:1025B0000648FEF705FA80E6A8970008D07B0008D9
:1025C000B01100204098000848980008B89700080B
:1025D00008B5094B094A9B69094C9A6108252E46A2
:1025E000668341F28830FFF73BFE258341F2883055
:1025F000FFF736FEF4E700BFF0080020A4760008DD
:10260000000400480000000000000000000000007E
:1026100070B52B4E01234FF0804533606C6A642007
:10262000FFF71EFE04F1670104F16400FDF710FFDF
:1026300000B170BD022333606C6A4FF47A70FFF70B
:102640000FFE04F2EB3104F57A70FDF701FF00286C
:10265000EFD1032333606C6A4FF47A70FFF700FE0A
:1026600004F2EB3104F57A70FDF7F2FE0028E0D1B8
:10267000042333606C6A42F21070FFF7F1FD04F539
:102680001C51084610301331FDF7E2FE0028D0D16E
:10269000052333606E6A202306F1640483F31188F6
:1026A000696A611A02D00820FFF7F2FB002383F366
:1026B000118806F167012046BDE87040FDF7C8BEED
:1026C0005412002000000000000000000000000084
:1026D00008B50120FFF7C4FD202383F311884FF0D4
:1026E00080420023506A83F3118808BD0000000077
:1026F0002DE9F84FDFF890B01E4F1F4E1F4D0123FC
:10270000CBF80030FFF7E4FF0024A24681464FF0EB
:10271000200888F3118800233A4630460121FEF74D
:102720009FFD3A46002342F210712846FEF798FDBD
:102730003046FEF755FD2846FEF752FD8AF3118814
:102740004FF0804342F20F725B6AA3EB090393429E
:1027500004F10104DDD902230948CBF80030FEF76B
:102760004FF96000FEF7DCF80648BDE8F84FFEF7C9
:1027700027B900BF1106000884120020981200201B
:10278000F08B0008008C00085412002000000000AC
:1027900010B5202383F311880C4CA269134653F81B
:1027A0002C0F984209D00168D1620D224B600023A2
:1027B00080F8202083F3118810BD0E20FFF7E0FA87
:1027C000A269D06A02F12C03EDE700BFF0080020F7
:1027D00070B520260025FFF7DBFF446A86F31188D9
:1027E0002146FFF7EDF985F31188002CF3D170BD78
:1027F0000E4B10B520229C6982F311886162026B36
:10280000626000F12C012160146090F820200463C4
:102810000E2A07D00C20FFF7B3FA606A002383F377
:10282000118810BDFEF7A4FBF4E700BFF0080020FC
:102830002DE9F0410546FFF74BFF002480464FF09D
:10284000804742F20F7601212846FFF7D1FF7B6ACD
:10285000A3EB0803B34204F10104F4D92846002194
:10286000FFF7C6FF2046BDE8F08100BF0000000072
:1028700010B541210446FFF7BBFF20464221FFF778
:10288000B7FF20464321FFF7B3FF20464421BDE8B0
:102890001040FFF7ADBF00BF0000000000000000C7
:1028A000F8B5374A83689569002B40D0A9689A68C3
:1028B0009142044607D993F820209960062A3BD01C
:1028C000072A15D042B32646234603E09968AA6832
:1028D00091422AD31B689C42F8D173680620C5E94F
:1028E00000631D6075606C62BDE8F840FFF748BA90
:1028F000D3E9000210605E6A18684260324602E066
:102900009068884232D312689642F9D17268C3E95E
:10291000006213607360D6E7D3E900121160196892
:1029200018464A60FEF724FBCDE71E46D5E7AB6BA1
:10293000C0E90253A863F8BDD3E9000210605E6AE3
:10294000186837464260324602E09068884214D3E5
:1029500012689642F9D17A68A968C3E900721360D7
:102960007B60B3689A688A42A5D3ACE71646726862
:10297000C3E9006213607360A5E71746EBE700BF89
:10298000F00800200000000000000000000000002F
:1029900008B5202383F31188FFF782FF002383F318
:1029A000118808BD000000000000000000000000C9
:1029B000202383F311888368013B002B836004DBB1
:1029C0000020002383F31188704710B5084CA269DA
:1029D000506241680346C2E900010A6005205A605E
:1029E000FFF7CEF9A369586A002383F3118810BD5D
:1029F000F0080020000000000000000000000000BF
:102A00002DE9F843DFF880901C4C0123C9F8003011
:102A1000FFF75EFE002580464FF0804742F20F76BA
:102A20002046FFF7C5FF2046FFF78AF92046FFF74B
:102A3000BFFF2046FFF784F92046FFF7B9FF204685
:102A4000FFF77EF92046FFF7B3FF2046FFF778F93E
:102A50007B6AA3EB0803B34205F10105E0D9022329
:102A60000748C9F80030FDF7CBFFA800FDF758FF75
:102A70000448BDE8F843FDF7A3BF00BF340B0020B6
:102A8000F08B00081C8C000854120020000000008D
:102A900038B5084CA36993F821305A0708D4064D7D
:102AA0002846FFF785FFA36993F821305B07F7D528
:102AB00038BD00BFF0080020340B002000000000EB
:102AC00010B5044C2046FFF773FF2046BDE81040C8
:102AD000FFF736B9280B00200000000000000000BE
:102AE00010B504460348FFF763FF2078BDE81040A7
:102AF000FDF726BF280B00200000000000000000AA
:102B00002DE9F04F85B0CDE90232D0F81C904FF09E
:102B1000200A8AF311883AB304460F4616464FF04E
:102B2000000BA2689642D4E904208CBFA568354604
:102B3000A2EB0008A84540D82BD32A463946FDF71A
:102B4000B3FBE2686261A268521BA2609DB1B9F159
:102B5000000F01D02046C8478BF31188761B2F4405
:102B60008AF31188002EDCD10398002383F31188A7
:102B700005B0BDE8F08F02992046FFF7E1FA002882
:102B8000CFD0039B981B002383F3118805B0BDE8C9
:102B9000F08FA5EB0803424639460193FDF784FB0D
:102BA00007EB0801DDF80480E0684246FDF77CFB96
:102BB000E2684346D3186361C5E72A463946FDF704
:102BC00073FB62692A446261BDE700BF0000000038
:102BD0003030FFF795BF00BF00000000000000008C
:102BE00030304FF0FF33FFF78BBF00BF0000000015
:102BF0002DE9F04F85B0CDE90232D0F81C904FF0AE
:102C0000200A8AF311883AB304460F4616464FF05D
:102C1000000BA268A169964222698CBFA56835465F
:102C2000A2EB0108A84540D82BD32A463846FDF729
:102C30003BFBE268A261A268521BA2609DB1B9F1A0
:102C4000000F01D02046C8478BF31188761B2F4414
:102C50008AF31188002EDCD10398002383F31188B6
:102C600005B0BDE8F08F02992046FFF769FA002809
:102C7000CFD0039B981B002383F3118805B0BDE8D8
:102C8000F08FA5EB0803424638460193FDF70CFB95
:102C900007EB0800DDF80480E1684246FDF704FB1D
:102CA000E2684346D318A361C5E72A463846FDF7D4
:102CB000FBFAA2692A44A261BDE700BF0000000040
:102CC0000C30FFF795BF00BF0000000000000000BF
:102CD0000C304FF0FF33FFF78BBF00BF0000000048
:102CE000C14B4FF0FF319A6A80B500229962986A11
:102CF0009A62986AD86A60F00700D862D86A00F0D1
:102D00000700D862D86A186B1963186B1A63186BBE
:102D1000986B60F080509863986B00F080509863D7
:102D2000986BD86BD963D86BDA63D86B186C19645D
:102D3000196C1A64196C996D41F080519965996FFD
:102D400041F080519967996FD3F8901001F4407168
:102D5000B1F5007F86B005D04FF48031C3F89010F4
:102D6000C3F89020A04BD3F8902042F01102C3F892
:102D70009020D3F890209207FBD51A689A4F42F022
:102D800004021A603B689B07FCD5984DD7F8902049
:102D9000974BC7F890204FF08009602240214FF4F4
:102DA00080702C464FF4007C4FF48066DFF87C8204
:102DB00083F80623DFF878E2C3F88011196083F8FE
:102DC0000723C3F88091C3F8009083F80823C3F861
:102DD0008001186083F80923C3F880C1C3F800C0DC
:102DE00083F80A234FF4000CC3F880611E600026AC
:102DF00083F81723C3F880C1C3F800C083F82823E1
:102E0000C3F884017B4A5860C8F8046044F804EBB6
:102E10004FF001084FF0100A05F10C004FF0C00C04
:102E20006C60C5E90300AA616E6185F80880C5E998
:102E30000822C5F838A083F826C3C3F88411596066
:102E4000BC6DAE6244EA0804BC65BC6F6A486B495D
:102E5000ED6244EA0804BC67BC6FD0F808C0E963BF
:102E6000C5E91111514429646549E9645244DFF808
:102E7000C4E16449644CEA614CEA080C4FF08042BA
:102E8000C5E915E12D654FF0FF31C0F808C041F6E6
:102E90003F7E05F1300C4FF08050C2F828E0D1623F
:102EA000C5F830C09661C5F834C0566304F11C0CF7
:102EB000D6605660C2F81480C2F8008083F81C9374
:102EC0000022C3F88001186000236846C4E900446A
:102ED000CDE90423CDE900166162C4E907CCCDE950
:102EE0000266A660C4E90444A6626667FDF778FA44
:102EF0006846FDF79DFF4549454A029B6367DFF839
:102F000038E14E6101F10C03C1E90166C1F800E04E
:102F1000C1E9033302EB0A0E142102F12403C2F8C3
:102F200010E0916102F1280E1C215362C2F828E0E2
:102F300002F13C0302F1400E116304213548D363D2
:102F4000C2F840E0344BD1615163DFF8F0C0DFF8E4
:102F5000F0E0324913629363314BC4F83890CCE906
:102F600000E1C4F86C9096605661D66284F85160B6
:102F7000C4E9196684F85280C2E90022A364C168DA
:102F8000284BD4F814E0DFF8BCC024644FF6FF02ED
:102F900011400B4304F13002C4F844E0CEF8102095
:102FA000C360DCF80C302049626143F08073CCF8D8
:102FB0000C300B68A26143EA080304F15C0204F1DF
:102FC000580C4FF02009E66484F850800B60C4F878
:102FD00058C080F81FA0E26580F82290226686F330
:102FE000118862B630E000BF001002409008002057
:102FF00000E100E0080B0020002004E0180B002096
:10300000E104000800B4C404F0080020900A002085
:103010006809002000ED00E0610B000800000120BD
:10302000F07600080003FA05001000E00070004090
:10303000549800080044004091040008880A0020C9
:10304000F8130020F0ED00E089F311882248FDF725
:1030500017FF3146FEF7B4FD86F3118889F3118816
:103060002B7A43452ED0AB6D1C496A6DA1FB03132F
:103070001B0B4020D3604FF0FF315060012640F21F
:103080002D1402209660002314601162287285F8C6
:103090005C1083F31188124A1248134C134E144DDE
:1030A0008021FEF7BDFD03E041F28830FFF7D8F83C
:1030B0002369DB07F8D43046FFF7E2F82846FFF72C
:1030C000DFF8F1E7BB6D43F40033BB65BB6F43F43E
:1030D0000033BB67BB6FC6E714770008B5814E1B92
:1030E000D1250008B012002000040048248E0008FA
:1030F0008C7A0008000000000000000000000000C2
:10310000EFF30983203383F30988002383F31188C5
:10311000704700BF00000000000000000000000039
:1031200038B52022034682F31188104A9469A06AB8
:10313000636204F12805A84206D00368A362FDF784
:1031400017FFA06AA842F8D194F8223043B994F846
:1031500021309B0704D1D4E904231A612269536109
:103160000F20BDE83840FEF70BBE00BFF00800207E
:10317000FFF7D6BF000000000000000000000000C4
:103180000E4A1068036830B4012194695A60002522
:1031900080F82010A1681360906184F8205000E04E
:1031A0001B689A689142FBD35A682146C4E90032F1
:1031B00014605C6030BCFDF763B800BFF00800200D
:1031C000044B1A689B6992689B689A4200D87047C2
:1031D000FFF7D6BFF008002000000000000000004C
:1031E00038B5202383F31188154CA3680133002BD5
:1031F000A3601ADD013B002BA36006DBFFF7E0FFB5
:103200000020002383F3118838BD0E4A6368956956
:103210000520C5E900431D606C626560FEF7B0FDE6
:10322000686A002383F3118838BD2068036823602F
:103230005C60FDF79DFE0022A3684262DAE700BFF2
:10324000280B0020F0080020000000000000000013
:1032500038B51E4B1E4D9B691E4A99681E481F4C6F
:10326000012301312B600023FEF7DAFC1C4A022304
:1032700010602B60FFF7B4FF20681A49001BB0FAFA
:1032800080F04009FDF7BCFA00B138BDA0681649CE
:10329000B0FA80F04009FDF7B3FA0028F5D1032316
:1032A0002B60FFF79DFF20680E49001BB0FA80F0ED
:1032B0004009FDF7A5FA0028E7D1A0680A49B0FA4D
:1032C00080F04009BDE83840FDF79ABAF0080020C8
:1032D00054120020C12A0008400B0020280B0020B7
:1032E0006C120020E0870008F08700080000000052
:1032F00038B5202383F311880A4C2368012204F196
:10330000180000252275C4E902332561FDF7D0FEBF
:1033100004F12000FDF7CCFEFFF752FF85F3118882
:1033200038BD00BF4C080020000000000000000075
:10333000FFF7DEBF000000000000000000000000FA
:10334000FFF7F6BF000000000000000000000000D2
:10335000FFF7EEBF000000000000000000000000CA
:103360002DE9F041202380460E4683F31188184C46
:1033700004F118050AE0D4E900722369A2EB070EF4
:10338000B3EBAE0F0ED1FEF7DBFE30B9237D314635
:103390002846002BEFD06FF00100002383F3118843
:1033A000BDE8F081A068011DA1608A42C0F80080DC
:1033B00003F10103074898BFA7602361FDF7F0FD03
:1033C000FFF7FEFE0020002383F31188BDE8F081A3
:1033D0004C0800206C0800200000000000000000E5
:1033E0002DE9F041202380460E4683F31188184CC6
:1033F00004F118050AE0D4E900272369A7EB020EBF
:10340000B3EBAE0F0ED1FEF79BFE30B9237D3146F4
:103410002846002BEFD06FF00100002383F31188C2
:10342000BDE8F081E1680B4804398A4288BF391F42
:10343000E1600133C1F800802361FDF7B1FDFFF7C2
:10344000BFFE0020002383F31188BDE8F08100BF98
:103450004C0800206C080020000000000000000064
:10346000F8B507460E46202383F31188154CE5185E
:1034700004E023696BB9FEF763FE30B9237D314662
:103480002846002BF5D06FF00100002383F311884C
:10349000F8BDE2686168106804328A42E26003F1B4
:1034A000FF33386028BF2268074828BFE2602361E5
:1034B000FDF776FDFFF784FE0020002383F31188DB
:1034C000F8BD00BF4C080020640800200000000088
:1034D00070B5404E404D012382B0336042244FF01E
:1034E000FF312046FFF73CFFB0FA80F02946400943
:1034F000FDF786F9013488B9462CF0D10223012169
:1035000058203360FFF72CFFA0F1FF30B0FA80F0B5
:1035100031494009FDF774F9044608B102B070BDA5
:10352000202585F311885820FDF74AFD84F3118882
:10353000A0F1FF30B0FA80F027494009FDF760F9AB
:103540000028EBD101215820FFF74AFFA0F1FF30FE
:10355000B0FA80F020494009FDF752F904460028EE
:10356000DCD185F311885820FDF752FD84F31188D2
:10357000A0F1FF30B0FA80F017494009FDF740F99B
:1035800004460028CAD103233360FFF7B1FE134B72
:1035900001211C7501A804233360FFF761FFA0F12E
:1035A000FF30B0FA80F00C494009FDF729F90446D4
:1035B0000028B3D185F3118801A8FDF751FD84F3EC
:1035C0001188A0F1FF30B0FA80F003494009FDF7FF
:1035D00017F9A3E754120020287800084C080020AF
:1035E0002DE9F047AD4F4FF0010882B0C7F80080D9
:1035F000202686F31188AA4CAA492069D4E9002321
:103600009B1AC0EBA300A0F10400B0FA80F04009BF
:10361000FDF7F6F828B1002383F3118802B0BDE866
:10362000F087054680F3118802233B6086F31188FA
:103630002368206104F11800C4E9023384F814807F
:10364000FDF736FD04F12000FDF732FD85F311880A
:1036500086F31188D4E90023206993499B1AC0EBB3
:10366000A300A0F10400B0FA80F04009FDF7C8F80B
:10367000804620B185F3118802B0BDE8F08780F361
:10368000118886F3118820698849B0FA80F04009D2
:10369000FDF7B6F8054610B188F31188BEE780F350
:1036A000118886F311882068A3688149C01AB0FA8E
:1036B00080F04009FDF7A4F880460028DAD180F3B5
:1036C000118886F311882068E3687A49C01AB0FA35
:1036D00080F04009FDF794F80028DDD180F31188CF
:1036E0000323DFF8D4A1207580463B60422586F392
:1036F00011882846FDF764FC88F31188B0FA80F041
:1037000040095146FDF77CF801358146002885D1F6
:10371000452DECD186F311884120FDF779FC89F322
:103720001188B0FA80F040096349FDF769F8054651
:1037300000287FF473AF4FF00408C7F8008086F3C9
:103740001188D4E9001322695B1AB2EBA30F0CBFF6
:10375000012000205949FDF753F88146002889D1FE
:1037600080F3118886F3118820695549A0F104007F
:10377000B0FA80F04009FDF743F8054610B189F32F
:1037800011884BE780F3118886F31188D4E9023061
:10379000C61A704270414B49FDF732F800287FF499
:1037A00069AF80F311880523DFF80C913B60454633
:1037B00006464FF0200888F3118801A8FDF750FC59
:1037C00086F31188B0FA80F040094946FDF718F8F1
:1037D00000287FF423AF9DF80400FDF7B1F8013D08
:1037E000E9D139493948FDF723F900287FF416AFAC
:1037F00006234FF0FF3146203B60FFF7B1FDB0FAE2
:1038000080F040092C49FCF7FBFF00287FF406AF4D
:103810004FF0FF3101A8FFF723FEB0FA80F0400916
:103820002549FCF7EDFF00287FF4F8AE07233B6045
:1038300088F31188D4E900122369521AC3EBA2035A
:10384000191F484248411849FCF7DAFF00287FF465
:1038500011AF85F3118888F3118820691349B0FAF4
:1038600080F04009FCF7CCFF00287FF403AF85F31C
:1038700011882068A3680E49C21A50425041FCF7D3
:10388000BFFF00287FF4CAAE2068E3680949C31A65
:1038900058425841FCF7B4FFC0E600BF5412002064
:1038A0004C080020607700086C77000878770008E3
:1038B00084770008A877000828780008CC770008EB
:1038C000D8770008E4770008FC7700081078000833
:1038D0002DE9F041B34F012382B03B60202686F3EF
:1038E0001188B14CB1492069D4E900239B1AC0EB7F
:1038F000A300A0F10400B0FA80F04009FCF780FFBB
:1039000028B1002383F3118802B0BDE8F081054699
:1039100080F3118802233B60FFF7EAFC86F31188ED
:10392000D4E900232069A2499B1AC0EBA300A0F1AF
:103930000400B0FA80F04009FCF762FF804620B135
:1039400085F3118802B0BDE8F08180F3118886F319
:10395000118820699749B0FA80F04009FCF750FFC0
:10396000054610B188F31188CEE780F3118886F3FD
:1039700011882068A3689049C01AB0FA80F0400905
:10398000FCF73EFF80460028DAD180F3118886F3E9
:1039900011882068E3688949C01AB0FA80F04009AC
:1039A000FCF72EFF0028DDD180F3118803234FF0B0
:1039B000FF313B60FFF7D4FC851C14BF00200120C1
:1039C0007F49FCF71DFF00289ED14FF0FF31FFF724
:1039D00007FD821C14BF002001207949FCF710FF6D
:1039E000002891D14FF0FF3101A8FFF739FD831C6A
:1039F00014BF002001207249FCF702FF002883D188
:103A00000423704E20753B6042254FF0FF3128465D
:103A1000FFF7A6FCB0FA80F031464009FCF7F0FE53
:103A2000013500287FF470AF452DEED14FF0FF3106
:103A30004120FFF7D5FCB0FA80F040096149FCF75E
:103A4000DFFE054600287FF45FAF05233B6020269C
:103A500086F31188D4E9001322695B1AB2EBA30F35
:103A60000CBF012000205849FCF7CAFE8046002800
:103A70007FF466AF80F3118886F31188206953497B
:103A8000A0F1040CDCF1000040EB0C00FCF7B8FEE8
:103A9000054600287FF466AF80F3118886F311880D
:103AA000D4E90230C61A704270414949FCF7A8FEB9
:103AB00000287FF445AF80F311880623414E3B6018
:103AC00004254FF0FF3101A8FFF7CAFCB0FA80F0DF
:103AD00031464009FCF794FE00287FF415AF9DF8AD
:103AE0000400FCF72DFF013DEBD13A493A48FCF7C1
:103AF0009FFF00287FF408AF07234FF0FF314620D7
:103B00003B60FFF72DFCB0FA80F040092D49FCF72F
:103B100077FE00287FF4F8AE4FF0FF3101A8FFF7E1
:103B20009FFCB0FA80F040092649FCF769FE0028A6
:103B30007FF4EAAE08233B60202686F31188D4E99F
:103B400000122369521AC3EBA203191F48424841CD
:103B50001749FCF755FE00287FF4F2AE85F3118873
:103B600086F3118820691349B0FA80F04009FCF708
:103B700047FE00287FF4E4AE85F311882068A3682F
:103B80000D49C21A50425041FCF73AFE00287FF41A
:103B9000BBAE2068E3680949C31A58425841FCF794
:103BA0002FFEB1E6541200204C0800206077000878
:103BB0006C7700087877000884770008A8770008F9
:103BC0003C77000828780008CC770008D8770008F0
:103BD000E4770008FC770008107800080000000077
:103BE0002DE9F047DFF8F4A0384D394C0123CAF82D
:103BF0000030A94604264FF02008002788F31188DA
:103C0000EB6823604846EC60FDF7DAFAFFF7D8FA74
:103C100087F311882B69013E1C44EFD102232D4EFE
:103C2000CAF8003004240020FEF782F9003018BFE3
:103C300001203146FCF7E4FD002844D1013CF2D1DB
:103C40000323CAF80030FEF773F9B0FA80F0400998
:103C50002149FCF7D5FDB0BB1D4EDFF87080042371
:103C600006F11009CAF800302027334687F311887F
:103C7000EA6846F8042B4046EB60FDF7A1FAFFF72F
:103C80009FFA84F31188B145EFD10523114DCAF88D
:103C9000003004240020FEF74BF9003018BF01204B
:103CA0002946FCF7ADFD70B9013CF3D10623CAF8F3
:103CB0000030FEF73DF9B0FA80F040090649BDE852
:103CC000F047FCF79DBDBDE8F08700BF100800205D
:103CD000F80A0020507800085C7800085412002090
:103CE00038B5202585F3118800210B48FDF728FA07
:103CF0000024FFF765FA84F311884FF4FA70FEF799
:103D0000AFFA85F3118805482146FDF719FAFFF748
:103D100057FA84F3118838BD080800200C080020E9
:103D200010B504464FF4FA70FEF79AFA202383F395
:103D3000118801212046FDF7EBF9FFF741FA002336
:103D400083F3118810BD00BF0000000000000000D8
:103D500010B540F2DC50FEF783FA202383F311887C
:103D6000064C2046FEF79CFD2046FDF701FAFFF7C2
:103D700027FA002383F3118810BD00BF3C08002000
:103D800008B54FF4FA70FEF76BFA202383F311881D
:103D90000448FDF715FAFFF713FA002383F311889F
:103DA00008BD00BF280B002000000000000000003C
:103DB00008B5202282F311888368002B05DDFFF708
:103DC000FFF9002383F3118808BDFDF7F9F9FFF728
:103DD000F7F9002383F3118808BD00BF000000003D
:103DE00010B52023044683F31188094B186820B1CD
:103DF000002242621A60FDF7BBF8FFF7E1F90023E9
:103E000083F311882078BDE81040FCF799BD00BF0E
:103E100080120020000000000000000000000000F0
:103E2000174B70B59D69202383F311880468C3681C
:103E3000AB6384421DD0E96B4BB11A68934203D047
:103E40009268914238BF1146DB68002BF5D10346DA
:103E50002268A66BA96020461A605360C3E9024637
:103E6000A363FDF785F8FFF7ABF9002383F311880F
:103E700070BD0023A360002383F3118870BD00BFD1
:103E8000F00800200000000000000000000000001A
:103E90002DE9F843374C002818BF044604F10C07FD
:103EA000384601F107080D464FEAD808FEF770FDC5
:103EB000201D026802F10F0323F007031E4602F1E2
:103EC0000809083B7AB1D2F804C00CF1010102EBF9
:103ED000C101A1EB060E8B424FEAEE0E01D2F04576
:103EE00012D91046E5E73846FFF79AFF266846B133
:103EF00008224FEAC8001146B047064608B140E91B
:103F000002453046BDE8F8839A421AD3E04513686B
:103F10002CD008F1010802EBC80C0CF10806891B33
:103F2000C91042F838304E46CCF804101346C0F899
:103F300000C03846C3E90045FFF772FF3046BDE8D0
:103F4000F883A3EB09094FEAE901F0455160F0D28B
:103F500008F1010C03EBCC006FEA08017144D2F8C0
:103F600000E0416043F83CE01060E2E703604E4649
:103F70001346DEE7900A0020000000000000000069
:103F8000F0B5044687B00F461148214616461D4637
:103F9000FFF77EFFD0B10F4B03960444CDE9043503
:103FA0000294CDE90070202383F311886846FCF762
:103FB00067FF012380F8213000210446FDF700FE51
:103FC000002383F31188204607B0F0BD0446FAE7CA
:103FD000AC0A0020B1090008000000000000000049
:103FE000F8B50C68A1420D460646174603D10DE010
:103FF0002468A5420AD008223146A01803F0D4FA5A
:104000000028F5D114B104462046F8BD39460020F9
:10401000FFF73EFF044648B108221044314603F042
:104020000FFB2B680122C4E900322C602046F8BD4A
:1040300038B505460748FEF7ABFC074A0748111F8D
:10404000FDF74EFD044600B105610248FFF7E8FEAA
:10405000204638BD680900207C090020E076000871
:1040600038B5074C2046FEF793FC04F110010548D3
:10407000FDF716FD05462046FFF7D2FE284638BD5F
:1040800068090020E0760008000000000000000041
:1040900010B50A48FEF77CFC802209490948FFF761
:1040A0009FFF044620B180220021103003F032FA35
:1040B0000248FFF7B5FE204610BD00BF680900208A
:1040C0008C090020C07600080000000000000000FD
:1040D00038B5074C2046FEF75BFC04F12401054887
:1040E000FDF7DEFC05462046FFF79AFE284638BD60
:1040F00068090020C07600080000000000000000F1
:1041000010B50A48FEF744FC094A0A48111FFDF79A
:10411000E7FC044628B100F11003C0E90433002293
:1041200082610248FFF77CFE204610BD680900202E
:1041300094090020D876000800000000000000006C
:1041400038B5074C2046FEF723FC04F1280105484A
:10415000FDF7A6FC05462046FFF762FE284638BD5F
:1041600068090020D8760008000000000000000068
:1041700038B51148FEF70CFC782210491048FFF7BB
:104180002FFF044698B100F1380304F1280104F12F
:104190003002C4E90633C4E90A11C4E90C2200F173
:1041A0007805002023616561206284F824000248BC
:1041B000FFF736FE204638BD68090020A40900201C
:1041C000C8760008000000000000000000000000A9
:1041D00038B5074C2046FEF7DBFB04F13C010548EF
:1041E000FDF75EFC05462046FFF71AFE284638BD5F
:1041F00068090020C87600080000000000000000E8
:104200002DE9F84F2248FEF7C3FB4FF4CA7221494B
:104210002148FFF7E5FE044698B300F11008102688
:104220000423C0E90488C0E90863002700F1940B67
:104230005D46C7618762876100F1540A4FF020092B
:1042400089F31188E3692B604046E561FCF7B8FF0C
:10425000FEF7B6FF87F31188236A013E1D44EFD1B4
:1042600004F1440204F14C03C4E90DAAC4E911228B
:10427000C4E91333C4F82CA0C4F830B0E66384F862
:1042800040600348FFF7CCFD2046BDE8F88F00BF33
:1042900068090020A8090020D0760008000000006E
:1042A00038B5074C2046FEF773FB04F14001054882
:1042B000FDF7F6FB05462046FFF7B2FD284638BD60
:1042C00068090020D076000800000000000000000F
:1042D0002DE9F843DFF880901C4C0123C9F8003029
:1042E000FEF7F6F9002580464FF0804742F20F7640
:1042F0002046FEF74DFB2046FFF792FD2046FEF7D5
:1043000047FB2046FFF78CFD2046FEF741FB204689
:10431000FFF786FD2046FEF73BFB2046FFF780FDBA
:104320007B6AA3EB0803B34205F10105E0D9022340
:104330000748C9F80030FCF763FBA800FCF7F0FA67
:104340000448BDE8F843FCF73BBB00BFE80A002087
:10435000F08B00083C8C0008541200200000000084
:10436000F8B507461B48FEF713FB1B48FEF710FB8A
:10437000202383F31188194DAB699E6B3046FCF7FF
:10438000F7FE174BAC691846636203E09968A268B0
:10439000914202D31B688342F8D15A680720C4E9CE
:1043A000003214605C60FDF7EBFCAB695B6A0133C3
:1043B00002D03046FEF774FA002383F31188387870
:1043C000FCF7BEFA0448FFF72BFD0248BDE8F840B1
:1043D000FFF726BD3C0800202C080020F008002034
:1043E00000080020000000000000000000000000A5
:1043F00070B506461648FEF7CBFA202383F31188E2
:10440000144B9C69A56B2846FCF7B2FE124860620B
:10441000034603E09968A268914202D31B68834275
:10442000F8D15A680720C4E9003214605C60FDF7D7
:10443000A7FC2846FEF734FA002383F3118830786E
:10444000FCF77EFA0248BDE87040FFF7E9BC00BF08
:104450002C080020F00800200008002000000000C8
:1044600038B5064C05462046FEF792FA2878FCF748
:1044700067FA2046BDE83840FFF7D2BC3C08002070
:104480002DE9F8434E4D4F4CAA69022396682360EC
:10449000FBF7AEFF4C49FCF7B3F908B1BDE8F88370
:1044A00003232360FBF7A4FF80F00100C0B247495B
:1044B000FCF7A6F90028F1D1454F042338462360C4
:1044C000FFF7AEFCB8684349B0FA80F04009FCF74A
:1044D00097F90028E2D138683F49C01BB0FA80F054
:1044E0004009FCF78DF90028D8D1AB693B499868A1
:1044F000801BB0FA80F0052340092360FCF780F9A7
:104500000028CBD106232360FBF772FF2E49FCF76E
:1045100077F90028C2D1FBF76BFF80F00100C0B231
:104520002A49FCF76DF90028B8D1D5F81880202366
:1045300083F31188D8F83830DBB181461A68D9681E
:10454000C8F838109342104635D0D2F838C01168F8
:1045500019604B60C3E9022C9363FCF709FDD8F89E
:104560003830002BEAD1D8F83C30C8F80830FEF7D4
:1045700027FE002383F31188B8681649B0FA80F04B
:104580004009FCF73DF9002888D138681249C71B5B
:1045900078427841FCF734F900287FF47FAFAB69AB
:1045A0000E499868821B0723504223605041BDE8A2
:1045B000F843FCF725B9C3F808900B46D1E700BFD4
:1045C000F0080020541200208C8800089C88000805
:1045D0002C080020A8880008E0870008B48800089C
:1045E0002DE9F843404D414EAA69414B946841483A
:1045F000414A424F04F101084FF0020C4146C6F80F
:1046000000C0FDF70DFB04F10209494638603C4B40
:104610003C4A3D48FDF704FB032378603B48336088
:10462000FEF7B6F9AB693A499868001BB0FA80F01A
:104630004009FCF7E5F808B1BDE8F88304234FF41E
:104640007A703360FDF70CFEAB6931499868A0EBD6
:104650000800B0FA80F04009FCF7D2F80028EBD14E
:1046600005232C483360FEF793F9AB692849986815
:10467000A0EB0800B0FA80F04009FCF7C1F8002870
:10468000DAD106234FF47A703360FDF7E9FDAB69A8
:104690001F499868A0EB0900B0FA80F04009FCF7C8
:1046A000AFF80028C8D107231A483360FFF7B8FBDA
:1046B000AB6917499868A0EB0800B0FA80F0400990
:1046C000FCF79EF80028B7D1082310483360FFF7A5
:1046D000A7FBAB690E499868001BB0FA80F040094F
:1046E000BDE8F843FCF78CB8F00800205412002015
:1046F00074880008400B0020214700086C1200203D
:1047000078880008513D0008880C00202C08002003
:10471000B48800083C0800200000000000000000F1
:1047200010B5064C4FF4FA70FDF79AFD2046FEF7DF
:104730002FF92046BDE81040FFF772BB2C0800207F
:1047400038B5064C05462046FEF722F92878FCF7D6
:10475000F7F82046BDE83840FFF762BB2C08002080
:1047600038B5174D04462846FEF712F96368013B39
:10477000636023B11248BDE83840FFF751BB05F133
:1047800028010A4602E09C420AD01A4613688B426E
:10479000F9D1202383F311880023EA6A1A60FFDE2F
:1047A00023681360202383F31188EB6A23600023BE
:1047B000EC6283F311880248BDE83840FFF730BB54
:1047C0006809002000000000000000000000000058
:1047D000F8B5424C01252560FFF7B2FCB0FA80F035
:1047E00040093F49FCF70CF800B1F8BD02232360F3
:1047F000FFF786FC0646003018BF01203949FBF759
:10480000FFFF0028F1D103232360FFF779FCB0FA02
:1048100080F040093449FBF7F3FF0028E5D1042379
:104820002360FFF78DFC0746003018BF01202F4999
:10483000FBF7E6FF0028D8D1F01BB0FA80F02C4936
:104840004009FBF7DDFF0028CFD178682849A0F1A7
:104850000200B0FA80F04009FBF7D2FF0028C4D173
:104860007B6823492B4428467B60FBF7C9FF00285F
:10487000BBD178681E49A0F1030CDCF1000040EBCD
:104880000C00FBF7BDFF0028AFD13846FFF768FFEB
:1048900078681849821E50425041FBF7B1FF00284A
:1048A000A3D13846FFF75CFF70681249431B58429A
:1048B0005841FBF7A5FF002897D130460523236018
:1048C000FFF74EFF06232360FFF73AFCB0FA80F0B3
:1048D00040090349BDE8F840FBF792BF541200209D
:1048E000D0790008B0790008C0790008CC790008B8
:1048F000D8790008F47900080000000000000000EA
:1049000010B5FFF71DFC40B1436804462BB12046AB
:10491000FFF726FF6368002BF9D110BD00000000EF
:1049200038B5174D04462846FEF732F86368013B58
:10493000636023B11248BDE83840FFF771BA05F152
:1049400010010A4602E09C420AD01A4613688B42C4
:10495000F9D1202383F3118800236A691A60FFDEEE
:1049600023681360202383F311886B69236000237D
:104970006C6183F311880248BDE83840FFF750BAF4
:104980006809002000000000000000000000000096
:104990002DE9F041514C01252560FFF761FBB0FA8C
:1049A00080F040094E49FBF72BFF08B1BDE8F081CC
:1049B00002234C482360FFF73BFB0646003018BF3C
:1049C00001204949FBF71CFF0028EFD1032347488A
:1049D0002360FFF72DFBB0FA80F040094449FBF754
:1049E0000FFF0028E2D104232360FFF739FB0746BD
:1049F000003018BF01203F49FBF702FF0028D5D146
:104A00003B693D49186845F2AA58A0EB0800B0FA86
:104A100080F04009FBF7F4FE0028C7D1F01BB0FA84
:104A200080F036494009FBF7EBFE0028BED17868DC
:104A30003249A0F10200B0FA80F04009FBF7E0FE35
:104A40000028B3D17B682D492B4428467B60FBF7B7
:104A5000D7FE0028AAD13B6927491868A0EB080EA9
:104A6000DEF1000040EB0E00FBF7CAFE00289DD1EE
:104A700078682249A0F1030CDCF1000040EB0C0047
:104A8000FBF7BEFE002891D13846FFF749FF786852
:104A90001B49821E50425041FBF7B2FE002885D1CF
:104AA0003846FFF73DFF70681549431B584258418F
:104AB000FBF7A6FE00287FF479AF3046052323607C
:104AC000FFF72EFF06232360FFF7CAFAB0FA80F043
:104AD00040090349BDE8F041FBF792BE54120020A3
:104AE000D079000884080020607900088808002038
:104AF00070790008CC79000880790008D87900081E
:104B0000F479000800000000000000000000000030
:104B100010B5FFF7A5FA40B1436804462BB1204613
:104B2000FFF7FEFE6368002BF9D110BD0000000006
:104B30002DE9F843174C002818BF044604F10C0770
:104B4000384689469046FDF723FF6368F3B1002499
:104B500025462646D3E90030844206F10106054485
:104B600038BF0446002BF5D1B9F1000F02D0ED009B
:104B7000C9F80050B8F1000F02D0E400C8F80040B6
:104B80003846FFF74DF93046BDE8F8831C461D4610
:104B90001E46E9E7900A0020000000000000000027
:104BA000F8B550E902530733DB0805F10C0740F86C
:104BB000043C0646A0F1080404353846FDF7E8FE3B
:104BC0002B46AB421A6801D09C4202D91AB19442DA
:104BD00001D31346F5E756F8041C46F8082C1C6070
:104BE0004A1C56F8080C04EBC20181420AD05968ED
:104BF0004A1C03EBC202944212D03846BDE8F8408A
:104C0000FFF70EB9496854F8320046F8080C0A4418
:104C100046F8042C59684A1C03EBC2029442ECD1BA
:104C200056E9020201321144186059603846BDE865
:104C3000F840FFF7F5B800BF0000000000000000DA
:104C400070B5144C82B001236A4601A9002023608C
:104C5000FFF76EFF10211048FFF71AF906460030E3
:104C600018BF01200D49FBF7CBFD80B90546304642
:104C7000FFF796FF02236FF0FF0128462360FFF73E
:104C800007F9B0FA80F040090549FBF7B9FD02B019
:104C900070BD00BF54120020B41100202479000818
:104CA000387900080000000000000000000000004B
:104CB0002DE9F041BF4CC04884B001236946002271
:104CC0002360FFF735FFA0F10100B0FA80F0BB4987
:104CD0004009FBF795FD10B104B0BDE8F081022357
:104CE0004FF48071B4482360FFF7D2F8B0FA80F037
:104CF0004009B349FBF784FD0028EDD103231021BF
:104D0000AD482360FFF7C4F80546003018BF012006
:104D1000AC49FBF775FD0028DED12846FFF740FFC0
:104D2000042303A902AAA4482360FFF701FF034656
:104D3000A0F10100B0FA80F04009A3490193FBF70C
:104D40005FFD0028C8D10398A0490F2894BF002018
:104D50000120FBF755FD0028BED1DDE90230C01A65
:104D6000B0FA80F099494009FBF74AFD0546002852
:104D7000B2D10523102190482360FFF789F8102154
:104D800080468D48FFF784F8102107468A48FFF7D0
:104D90007FF806464046FFF703FF3846FFF700FF5F
:104DA0003046FFF7FDFE2A4601A98348FFF7C0FE03
:104DB000A0F10100B0FA80F080494009FBF720FD26
:104DC0000546002888D1062310217B482360FFF781
:104DD0005FF8102106467848FFF75AF81021074679
:104DE0007548FFF755F8FFF7DBFE3846FFF7D8FEAA
:104DF0003046FFF7D5FE2A4601A96F48FFF798FE17
:104E0000431E58426D495841FBF7FAFC05460028FD
:104E10007FF462AF0723112167482360FFF738F85A
:104E2000102106466448FFF733F807463046FFF77F
:104E3000B7FE2A4601A96048FFF77AFEA0F10208F2
:104E4000D8F10000624940EB0800FBF7D9FC0546A9
:104E500000287FF441AF10215748FFF719F82A4680
:104E6000064601A95448FFF763FE012800F09F8021
:104E7000002201A95048FFF75BFEA0F1020EDEF10F
:104E8000000040EB0E004D49FBF7BAFC0546002838
:104E90007FF422AF3846FFF783FE3046FFF780FEEF
:104EA0002A4601A94448FFF743FE00F1FF3CDCF12C
:104EB0000000424940EB0C00FBF7A2FC054600282D
:104EC0007FF40AAF082310213B482360FEF7E0FF80
:104ED000102107463848FEF7DBFF06463846FFF745
:104EE0005FFE2A4601A93448FFF722FE871E78425A
:104EF00037497841FBF784FC054600287FF4ECAE87
:104F000020212D48FEF7C4FFFFF74AFE3046FFF789
:104F100047FE2A4601A92848FFF70AFE451E6842B7
:104F200026496841FBF76CFC024600287FF4D4AEAA
:104F3000092301A920482360FFF7FAFD01991E48C3
:104F4000FEF7A6FF064600301E4918BF0120FBF7FA
:104F500057FC024600287FF4BFAE01461648FFF713
:104F6000E7FDB0FA80F040091A49FBF749FC054615
:104F700000287FF4B1AE3046FFF712FE2A4601A9A1
:104F80000A230D482360FFF7D3FD421E50425041D3
:104F90000A49FBF735FC00287FF49EAEDDE90030BE
:104FA000C31A58420C495841FBF72AFC94E60120E9
:104FB00069E700BF54120020B4110020B87800083F
:104FC0003879000824790008C8780008DC780008DF
:104FD000F47800086C7700080479000800000000ED
:104FE0000A4602E0984206D01A4613688B42F9D16D
:104FF0000020FFF7D5BD03681360FFF7D1BD00BFE8
:1050000010B504460748FDF7C3FC6368013B6360C5
:105010001BB920460449FFF7E3FF0248BDE81040F2
:10502000FEF7FEBE68090020A8090020000000006D
:10503000F8B5424C01252560FFF732F9B0FA80F04F
:1050400040093F49FBF7DCFB00B1F8BD02232360B8
:10505000FFF7D6F80646003018BF01203949FBF7A4
:10506000CFFB0028F1D103232360FFF7C9F8B0FA82
:1050700080F040093449FBF7C3FB0028E5D1042345
:105080002360FFF70DF90746003018BF01202F49B4
:10509000FBF7B6FB0028D8D1F01BB0FA80F02C4902
:1050A0004009FBF7ADFB0028CFD178682849A0F173
:1050B0000200B0FA80F04009FBF7A2FB0028C4D13F
:1050C0007B6823492B4428467B60FBF799FB00282B
:1050D000BBD178681E49A0F1030CDCF1000040EB65
:1050E0000C00FBF78DFB0028AFD13846FFF788FF97
:1050F00078681849821E50425041FBF781FB002816
:10510000A3D13846FFF77CFF70681249431B584211
:105110005841FBF775FB002897D1304605232360E3
:10512000FFF76EFF06232360FFF7BAF8B0FA80F0AE
:1051300040090349BDE8F840FBF762BB5412002068
:10514000D0790008B0790008C0790008CC7900084F
:10515000D8790008F4790008000000000000000081
:1051600010B5FFF79DF840B1436804462BB12046C7
:10517000FFF746FF6368002BF9D110BD0000000067
:1051800010B504460748FDF703FC6368013B636004
:105190001BB920460449FFF723FF0248BDE8104031
:1051A000FEF73EBE68090020A409002000000000B0
:1051B000F8B5424C01252560FFF70AF8B0FA80F0F7
:1051C00040093F49FBF71CFB00B1F8BD02232360F7
:1051D000FEF7CEFF0646003018BF01203949FBF725
:1051E0000FFB0028F1D103232360FEF7C1FFB0FAC3
:1051F00080F040093449FBF703FB0028E5D1042384
:105200002360FEF7E5FF0746003018BF01202F4955
:10521000FBF7F6FA0028D8D1F01BB0FA80F02C4941
:105220004009FBF7EDFA0028CFD178682849A0F1B2
:105230000200B0FA80F04009FBF7E2FA0028C4D17E
:105240007B6823492B4428467B60FBF7D9FA00286A
:10525000BBD178681E49A0F1030CDCF1000040EBE3
:105260000C00FBF7CDFA0028AFD13846FFF788FFD6
:1052700078681849821E50425041FBF7C1FA002855
:10528000A3D13846FFF77CFF70681249431B584290
:105290005841FBF7B5FA002897D130460523236023
:1052A000FFF76EFF06232360FEF792FFB0FA80F04F
:1052B00040090349BDE8F840FBF7A2BA54120020A8
:1052C000D0790008B0790008C0790008CC790008CE
:1052D000D8790008F4790008000000000000000000
:1052E00010B5FEF775FF40B1436804462BB1204668
:1052F000FFF746FF6368002BF9D110BD00000000E6
:1053000010B504460748FDF743FB6368013B636043
:105310001BB920460449FFF763FE0248BDE8104070
:10532000FEF77EBD680900208C0900200000000007
:10533000F8B5424C01252560FEF7CAFEB0FA80F0B0
:1053400040093F49FBF75CFA00B1F8BD0223236036
:10535000FEF79EFE0646003018BF01203949FBF7D4
:105360004FFA0028F1D103232360FEF791FEB0FA33
:1053700080F040093449FBF743FA0028E5D10423C3
:105380002360FEF7A5FE0746003018BF01202F4915
:10539000FBF736FA0028D8D1F01BB0FA80F02C4980
:1053A0004009FBF72DFA0028CFD178682849A0F1F1
:1053B0000200B0FA80F04009FBF722FA0028C4D1BD
:1053C0007B6823492B4428467B60FBF719FA0028A9
:1053D000BBD178681E49A0F1030CDCF1000040EB62
:1053E0000C00FBF70DFA0028AFD13846FFF788FF15
:1053F00078681849821E50425041FBF701FA002894
:10540000A3D13846FFF77CFF70681249431B58420E
:105410005841FBF7F5F9002897D130460523236062
:10542000FFF76EFF06232360FEF752FEB0FA80F00E
:1054300040090349BDE8F840FBF7E2B954120020E7
:10544000D0790008B0790008C0790008CC7900084C
:10545000D8790008F479000800000000000000007E
:1054600010B5FEF735FE40B1436804462BB1204627
:10547000FFF746FF6368002BF9D110BD0000000064
:10548000202282F3118890F82230013B80F82230EC
:10549000036A03F0FF130F2B03D0002383F311885B
:1054A0007047D0E9041310B41961046900216361E5
:1054B00081F3118890F8213003F00303012B0CD005
:1054C000022B08D1036CC06982F311881A6802604C
:1054D000186081F3118810BC7047C06910BCFFF7D9
:1054E0005FBB00BF000000000000000000000000E3
:1054F0002DE9F843174BDFF86C909B69DFF8688063
:105500009D68154F01231D44C9F80030FDF7E0F8F0
:10551000002406460023424629463846FCF780FB15
:10552000FFF7AEFF4FF0804342F20F725B6A9B1BA6
:10553000934204F10104EDD902230848C9F8003070
:10554000FBF75EFA2046FBF7EBF90548BDE8F843A8
:10555000FBF736BAF0080020400B0020F08B000863
:10556000948B0008541200207131000800000000E4
:1055700038B50446202383F3118890F820300F2B90
:1055800007D0084B826A9B6909201A60A362FCF766
:10559000F7FB656A002383F311882046FFF770FF4D
:1055A000284638BDF0080020000000000000000080
:1055B0002DE9F843174BDFF86C909B69DFF86880A2
:1055C0009D68154F0123C9F80030FDF781F8013DB2
:1055D000002406460023424629463846FCF720FBB5
:1055E000FFF7C6FF4FF0804342F20F725B6A9B1BCE
:1055F000934204F10104EDD902230848C9F80030B0
:10560000FBF7FEF92046FBF78BF90548BDE8F843A8
:10561000FBF7D6B9F0080020400B0020F08B000803
:10562000948B000854120020713100080000000023
:1056300070B5074C002604F1140554F8040B18B19A
:10564000FFF796FF44F8046CAC42F6D170BD00BF82
:105650006C120020000000000000000000000000AC
:105660002DE9F04383B002ACDFF8D080DFF8D090B2
:105670002D4F2E4E2E4D0122002344F8043DC9F833
:105680000020FDF725F8D8F8183099683A462346E7
:1056900001393046FCF7C4FAD8F818302860996808
:1056A0003A462346013906F5A470FCF7B9FAD8F852
:1056B0001830686099683A462346013906F5247027
:1056C000FCF7AEFAD8F81830A86099683A46234635
:1056D000013906F57670FCF7A3FAD8F81830E860BF
:1056E00099683A460139234606F5A460FCF798FA12
:1056F0000223286142F21070C9F80030FCF7B0FDB7
:10570000FBF7BEF8FFF794FF03230A48C9F80030FF
:10571000FBF776F90198FBF703F90748FBF750F917
:1057200003B0BDE8F08300BF911B0008400B0020D0
:105730006C120020F08B0008D48B0008F0080020C9
:1057400054120020000000000000000000000000D3
:105750002B4B2C4A9B692C4899682DE9F047DFF8C0
:10576000B8A0013101240023CAF80040FCF758FA20
:10577000264A022304461060CAF80030FCF7A8FF4E
:1057800000252E46814620274FF0804887F3118858
:1057900000212046FCF714FA20460021FCF710FAFD
:1057A00020460021FCF70CFA20460021FCF708FAFD
:1057B00086F31188D8F8243042F20F72A3EB090364
:1057C000934205F10405E1D90323CAF8003087F3B9
:1057D00011884FF0FF312046FCF7F2F986F311886B
:1057E000FFF726FF04230A48CAF80030FBF708F940
:1057F0006800FBF795F80748BDE8F047FBF7E0B80D
:10580000F0080020611E0008400B00206C120020F0
:10581000F08B0008D48B0008541200200000000018
:105820002DE9F0412C4E2D4DB3692D4F99682D4A2D
:105830002D4CDFF8C4804FF0010C013128460023C5
:10584000C7F800C0FCF7ECF9B369206099684FF025
:10585000020C4246023905F5A4700023C7F800C0C7
:10586000FCF7DEF9B369606099684246033905F5D3
:1058700024700023FCF7D4F9B369A060996842460C
:10588000043905F576700023FCF7CAF9B369E060C6
:1058900099684246053905F5A4600023FCF7C0F974
:1058A0000323206120683B60FCF7C2FF0446FFF73A
:1058B000BFFE04230D483B60FBF7A2F82046FBF730
:1058C0002FF80B48FBF79CF86000FBF729F8094814
:1058D000BDE8F041FBF774B8F0080020400B002051
:1058E00054120020D12700086C120020F08B000811
:1058F000588B0008D48B00087131000800000000AC
:1059000038B5144B144C9B69144A996814480131FA
:10591000012500232560FCF783F9124A0223106059
:105920002360FCF785FF0546FFF782FE03230E4840
:105930002360FBF765F82846FAF7F2FF0B48FBF700
:105940005FF86800FAF7ECFF0948BDE83840FBF75C
:1059500037B800BFF008002054120020D1270008FB
:10596000400B00206C120020F08B0008588B0008C0
:10597000D48B0008000000000000000000000000C0
:1059800038B5144B144C9B69144A99681448013972
:10599000012500232560FCF743F9124A0223106019
:1059A0002360FCF745FF0546FFF742FE03230E4840
:1059B0002360FBF725F82846FAF7B2FF0B48FBF700
:1059C0001FF86800FAF7ACFF0948BDE83840FAF75D
:1059D000F7BF00BFF008002054120020D1270008B4
:1059E000400B00206C120020F08B0008588B000840
:1059F000D48B000800000000000000000000000040
:105A0000F8B53D4D3D4B3E4A3E490120286003F12B
:105A10000C072026002486F31188086810600A60AD
:105A200084F311889F4202D053F8042BF3E7364BDE
:105A3000364A9B6936489E68364C0323711E2B609C
:105A4000FCF74EF9B11E2060334A3448FCF748F9A0
:105A5000F11E6060324A3348FCF742F9311FA06002
:105A6000314A3248FCF73CF9711FE060304A314856
:105A7000FCF736F906462068266104232B6038B10E
:105A8000606828B1A06818B1E068003018BF012034
:105A90002949FAF7B5FE00B1F8BDB6FA86F040091B
:105AA0002649FAF7ADFE0028F6D105232B60FFF753
:105AB000BFFD23492348FAF7BBFF0028ECD106239A
:105AC000104F214E2B6004243846FBF769F8003054
:105AD00018BF01203146FAF793FE0028DCD1013CC3
